{
  "_format": "hh-sol-artifact-1",
  "contractName": "MonkeyContract",
  "sourceName": "contracts/MonkeyContract.sol",
  "abi": [
    {
      "inputs": [],
      "stateMutability": "nonpayable",
      "type": "constructor"
    },
    {
      "anonymous": false,
      "inputs": [
        {
          "indexed": true,
          "internalType": "address",
          "name": "owner",
          "type": "address"
        },
        {
          "indexed": true,
          "internalType": "address",
          "name": "approved",
          "type": "address"
        },
        {
          "indexed": true,
          "internalType": "uint256",
          "name": "tokenId",
          "type": "uint256"
        }
      ],
      "name": "Approval",
      "type": "event"
    },
    {
      "anonymous": false,
      "inputs": [
        {
          "indexed": true,
          "internalType": "address",
          "name": "owner",
          "type": "address"
        },
        {
          "indexed": true,
          "internalType": "address",
          "name": "operator",
          "type": "address"
        },
        {
          "indexed": false,
          "internalType": "bool",
          "name": "approved",
          "type": "bool"
        }
      ],
      "name": "ApprovalForAll",
      "type": "event"
    },
    {
      "anonymous": false,
      "inputs": [
        {
          "indexed": false,
          "internalType": "uint256",
          "name": "tokenId",
          "type": "uint256"
        },
        {
          "indexed": false,
          "internalType": "uint256",
          "name": "genes",
          "type": "uint256"
        },
        {
          "indexed": false,
          "internalType": "uint256",
          "name": "birthtime",
          "type": "uint256"
        },
        {
          "indexed": false,
          "internalType": "uint256",
          "name": "parent1Id",
          "type": "uint256"
        },
        {
          "indexed": false,
          "internalType": "uint256",
          "name": "parent2Id",
          "type": "uint256"
        },
        {
          "indexed": false,
          "internalType": "uint256",
          "name": "generation",
          "type": "uint256"
        },
        {
          "indexed": false,
          "internalType": "address",
          "name": "owner",
          "type": "address"
        }
      ],
      "name": "BreedingSuccessful",
      "type": "event"
    },
    {
      "anonymous": false,
      "inputs": [
        {
          "indexed": false,
          "internalType": "address",
          "name": "owner",
          "type": "address"
        },
        {
          "indexed": false,
          "internalType": "uint256",
          "name": "tokenId",
          "type": "uint256"
        },
        {
          "indexed": false,
          "internalType": "uint256",
          "name": "parent1Id",
          "type": "uint256"
        },
        {
          "indexed": false,
          "internalType": "uint256",
          "name": "parent2Id",
          "type": "uint256"
        },
        {
          "indexed": false,
          "internalType": "uint256",
          "name": "genes",
          "type": "uint256"
        }
      ],
      "name": "MonkeyCreated",
      "type": "event"
    },
    {
      "anonymous": false,
      "inputs": [
        {
          "indexed": true,
          "internalType": "address",
          "name": "previousOwner",
          "type": "address"
        },
        {
          "indexed": true,
          "internalType": "address",
          "name": "newOwner",
          "type": "address"
        }
      ],
      "name": "OwnershipTransferred",
      "type": "event"
    },
    {
      "anonymous": false,
      "inputs": [
        {
          "indexed": false,
          "internalType": "address",
          "name": "account",
          "type": "address"
        }
      ],
      "name": "Paused",
      "type": "event"
    },
    {
      "anonymous": false,
      "inputs": [
        {
          "indexed": true,
          "internalType": "address",
          "name": "from",
          "type": "address"
        },
        {
          "indexed": true,
          "internalType": "address",
          "name": "to",
          "type": "address"
        },
        {
          "indexed": true,
          "internalType": "uint256",
          "name": "tokenId",
          "type": "uint256"
        }
      ],
      "name": "Transfer",
      "type": "event"
    },
    {
      "anonymous": false,
      "inputs": [
        {
          "indexed": false,
          "internalType": "address",
          "name": "account",
          "type": "address"
        }
      ],
      "name": "Unpaused",
      "type": "event"
    },
    {
      "inputs": [],
      "name": "GEN0_Limit",
      "outputs": [
        {
          "internalType": "uint256",
          "name": "",
          "type": "uint256"
        }
      ],
      "stateMutability": "view",
      "type": "function"
    },
    {
      "inputs": [
        {
          "internalType": "uint256",
          "name": "",
          "type": "uint256"
        }
      ],
      "name": "allMonkeysArray",
      "outputs": [
        {
          "internalType": "uint256",
          "name": "parent1Id",
          "type": "uint256"
        },
        {
          "internalType": "uint256",
          "name": "parent2Id",
          "type": "uint256"
        },
        {
          "internalType": "uint256",
          "name": "generation",
          "type": "uint256"
        },
        {
          "internalType": "uint256",
          "name": "genes",
          "type": "uint256"
        },
        {
          "internalType": "uint256",
          "name": "birthtime",
          "type": "uint256"
        }
      ],
      "stateMutability": "view",
      "type": "function"
    },
    {
      "inputs": [
        {
          "internalType": "address",
          "name": "to",
          "type": "address"
        },
        {
          "internalType": "uint256",
          "name": "tokenId",
          "type": "uint256"
        }
      ],
      "name": "approve",
      "outputs": [],
      "stateMutability": "nonpayable",
      "type": "function"
    },
    {
      "inputs": [
        {
          "internalType": "address",
          "name": "owner",
          "type": "address"
        }
      ],
      "name": "balanceOf",
      "outputs": [
        {
          "internalType": "uint256",
          "name": "",
          "type": "uint256"
        }
      ],
      "stateMutability": "view",
      "type": "function"
    },
    {
      "inputs": [
        {
          "internalType": "uint256",
          "name": "_parent1Id",
          "type": "uint256"
        },
        {
          "internalType": "uint256",
          "name": "_parent2Id",
          "type": "uint256"
        }
      ],
      "name": "breed",
      "outputs": [
        {
          "internalType": "uint256",
          "name": "",
          "type": "uint256"
        }
      ],
      "stateMutability": "nonpayable",
      "type": "function"
    },
    {
      "inputs": [
        {
          "internalType": "uint256",
          "name": "_genes",
          "type": "uint256"
        }
      ],
      "name": "createGen0Monkey",
      "outputs": [],
      "stateMutability": "nonpayable",
      "type": "function"
    },
    {
      "inputs": [
        {
          "internalType": "uint256",
          "name": "_parent1Id",
          "type": "uint256"
        },
        {
          "internalType": "uint256",
          "name": "_parent2Id",
          "type": "uint256"
        },
        {
          "internalType": "uint256",
          "name": "_generation",
          "type": "uint256"
        },
        {
          "internalType": "uint256",
          "name": "_genes",
          "type": "uint256"
        },
        {
          "internalType": "address",
          "name": "_owner",
          "type": "address"
        }
      ],
      "name": "createMonkey",
      "outputs": [
        {
          "internalType": "uint256",
          "name": "",
          "type": "uint256"
        }
      ],
      "stateMutability": "nonpayable",
      "type": "function"
    },
    {
      "inputs": [
        {
          "internalType": "address",
          "name": "owner",
          "type": "address"
        }
      ],
      "name": "findMonkeyIdsOfAddress",
      "outputs": [
        {
          "internalType": "uint256[]",
          "name": "",
          "type": "uint256[]"
        }
      ],
      "stateMutability": "view",
      "type": "function"
    },
    {
      "inputs": [],
      "name": "gen0amountTotal",
      "outputs": [
        {
          "internalType": "uint256",
          "name": "",
          "type": "uint256"
        }
      ],
      "stateMutability": "view",
      "type": "function"
    },
    {
      "inputs": [
        {
          "internalType": "uint256",
          "name": "tokenId",
          "type": "uint256"
        }
      ],
      "name": "getApproved",
      "outputs": [
        {
          "internalType": "address",
          "name": "",
          "type": "address"
        }
      ],
      "stateMutability": "view",
      "type": "function"
    },
    {
      "inputs": [],
      "name": "getMonkeyContractAddress",
      "outputs": [
        {
          "internalType": "address",
          "name": "",
          "type": "address"
        }
      ],
      "stateMutability": "view",
      "type": "function"
    },
    {
      "inputs": [
        {
          "internalType": "uint256",
          "name": "tokenId",
          "type": "uint256"
        }
      ],
      "name": "getMonkeyDetails",
      "outputs": [
        {
          "internalType": "uint256",
          "name": "genes",
          "type": "uint256"
        },
        {
          "internalType": "uint256",
          "name": "birthtime",
          "type": "uint256"
        },
        {
          "internalType": "uint256",
          "name": "parent1Id",
          "type": "uint256"
        },
        {
          "internalType": "uint256",
          "name": "parent2Id",
          "type": "uint256"
        },
        {
          "internalType": "uint256",
          "name": "generation",
          "type": "uint256"
        },
        {
          "internalType": "address",
          "name": "owner",
          "type": "address"
        },
        {
          "internalType": "address",
          "name": "approvedAddress",
          "type": "address"
        }
      ],
      "stateMutability": "view",
      "type": "function"
    },
    {
      "inputs": [
        {
          "internalType": "address",
          "name": "owner",
          "type": "address"
        },
        {
          "internalType": "address",
          "name": "operator",
          "type": "address"
        }
      ],
      "name": "isApprovedForAll",
      "outputs": [
        {
          "internalType": "bool",
          "name": "",
          "type": "bool"
        }
      ],
      "stateMutability": "view",
      "type": "function"
    },
    {
      "inputs": [],
      "name": "name",
      "outputs": [
        {
          "internalType": "string",
          "name": "",
          "type": "string"
        }
      ],
      "stateMutability": "view",
      "type": "function"
    },
    {
      "inputs": [],
      "name": "owner",
      "outputs": [
        {
          "internalType": "address",
          "name": "",
          "type": "address"
        }
      ],
      "stateMutability": "view",
      "type": "function"
    },
    {
      "inputs": [
        {
          "internalType": "uint256",
          "name": "tokenId",
          "type": "uint256"
        }
      ],
      "name": "ownerOf",
      "outputs": [
        {
          "internalType": "address",
          "name": "",
          "type": "address"
        }
      ],
      "stateMutability": "view",
      "type": "function"
    },
    {
      "inputs": [],
      "name": "paused",
      "outputs": [
        {
          "internalType": "bool",
          "name": "",
          "type": "bool"
        }
      ],
      "stateMutability": "view",
      "type": "function"
    },
    {
      "inputs": [],
      "name": "renounceOwnership",
      "outputs": [],
      "stateMutability": "nonpayable",
      "type": "function"
    },
    {
      "inputs": [
        {
          "internalType": "address",
          "name": "from",
          "type": "address"
        },
        {
          "internalType": "address",
          "name": "to",
          "type": "address"
        },
        {
          "internalType": "uint256",
          "name": "tokenId",
          "type": "uint256"
        }
      ],
      "name": "safeTransferFrom",
      "outputs": [],
      "stateMutability": "nonpayable",
      "type": "function"
    },
    {
      "inputs": [
        {
          "internalType": "address",
          "name": "from",
          "type": "address"
        },
        {
          "internalType": "address",
          "name": "to",
          "type": "address"
        },
        {
          "internalType": "uint256",
          "name": "tokenId",
          "type": "uint256"
        },
        {
          "internalType": "bytes",
          "name": "_data",
          "type": "bytes"
        }
      ],
      "name": "safeTransferFrom",
      "outputs": [],
      "stateMutability": "nonpayable",
      "type": "function"
    },
    {
      "inputs": [
        {
          "internalType": "address",
          "name": "operator",
          "type": "address"
        },
        {
          "internalType": "bool",
          "name": "approved",
          "type": "bool"
        }
      ],
      "name": "setApprovalForAll",
      "outputs": [],
      "stateMutability": "nonpayable",
      "type": "function"
    },
    {
      "inputs": [],
      "name": "showTotalSupply",
      "outputs": [
        {
          "internalType": "uint256",
          "name": "",
          "type": "uint256"
        }
      ],
      "stateMutability": "view",
      "type": "function"
    },
    {
      "inputs": [
        {
          "internalType": "bytes4",
          "name": "interfaceId",
          "type": "bytes4"
        }
      ],
      "name": "supportsInterface",
      "outputs": [
        {
          "internalType": "bool",
          "name": "",
          "type": "bool"
        }
      ],
      "stateMutability": "view",
      "type": "function"
    },
    {
      "inputs": [],
      "name": "symbol",
      "outputs": [
        {
          "internalType": "string",
          "name": "",
          "type": "string"
        }
      ],
      "stateMutability": "view",
      "type": "function"
    },
    {
      "inputs": [
        {
          "internalType": "uint256",
          "name": "tokenId",
          "type": "uint256"
        }
      ],
      "name": "tokenURI",
      "outputs": [
        {
          "internalType": "string",
          "name": "",
          "type": "string"
        }
      ],
      "stateMutability": "view",
      "type": "function"
    },
    {
      "inputs": [],
      "name": "totalSupply",
      "outputs": [
        {
          "internalType": "uint256",
          "name": "",
          "type": "uint256"
        }
      ],
      "stateMutability": "view",
      "type": "function"
    },
    {
      "inputs": [
        {
          "internalType": "address",
          "name": "_from",
          "type": "address"
        },
        {
          "internalType": "address",
          "name": "_to",
          "type": "address"
        },
        {
          "internalType": "uint256",
          "name": "_tokenId",
          "type": "uint256"
        }
      ],
      "name": "transfer",
      "outputs": [],
      "stateMutability": "nonpayable",
      "type": "function"
    },
    {
      "inputs": [
        {
          "internalType": "address",
          "name": "from",
          "type": "address"
        },
        {
          "internalType": "address",
          "name": "to",
          "type": "address"
        },
        {
          "internalType": "uint256",
          "name": "tokenId",
          "type": "uint256"
        }
      ],
      "name": "transferFrom",
      "outputs": [],
      "stateMutability": "nonpayable",
      "type": "function"
    },
    {
      "inputs": [
        {
          "internalType": "address",
          "name": "newOwner",
          "type": "address"
        }
      ],
      "name": "transferOwnership",
      "outputs": [],
      "stateMutability": "nonpayable",
      "type": "function"
    }
  ],
  "bytecode": "0x6080604052600c6009553480156200001657600080fd5b506040518060400160405280600e81526020017f43727970746f204d6f6e6b6579730000000000000000000000000000000000008152506040518060400160405280600681526020017f4d4f4e4b4559000000000000000000000000000000000000000000000000000081525081600090805190602001906200009b929190620001da565b508060019080519060200190620000b4929190620001da565b5050506000620000c9620001d260201b60201c565b905080600660006101000a81548173ffffffffffffffffffffffffffffffffffffffff021916908373ffffffffffffffffffffffffffffffffffffffff1602179055508073ffffffffffffffffffffffffffffffffffffffff16600073ffffffffffffffffffffffffffffffffffffffff167f8be0079c531659141344cd1fd0a4f28419497f9722a3daafe3b4186f6b6457e060405160405180910390a35060016007819055506000600860006101000a81548160ff02191690831515021790555030600860016101000a81548173ffffffffffffffffffffffffffffffffffffffff021916908373ffffffffffffffffffffffffffffffffffffffff160217905550620002ef565b600033905090565b828054620001e8906200028a565b90600052602060002090601f0160209004810192826200020c576000855562000258565b82601f106200022757805160ff191683800117855562000258565b8280016001018555821562000258579182015b82811115620002575782518255916020019190600101906200023a565b5b5090506200026791906200026b565b5090565b5b80821115620002865760008160009055506001016200026c565b5090565b60006002820490506001821680620002a357607f821691505b60208210811415620002ba57620002b9620002c0565b5b50919050565b7f4e487b7100000000000000000000000000000000000000000000000000000000600052602260045260246000fd5b61432880620002ff6000396000f3fe608060405234801561001057600080fd5b50600436106101cf5760003560e01c8063715018a611610104578063beabacc8116100a2578063e985e9c511610071578063e985e9c514610560578063ef742fc114610590578063f2fde38b146105ac578063f91ba674146105c8576101cf565b8063beabacc8146104c6578063c87b56dd146104e2578063d9ecad7b14610512578063daa97fae14610542576101cf565b806395d89b41116100de57806395d89b4114610452578063a0b7cb0714610470578063a22cb4651461048e578063b88d4fde146104aa576101cf565b8063715018a6146103fa5780638da5cb5b1461040457806390ba348514610422576101cf565b80631b4172781161017157806342842e0e1161014b57806342842e0e146103605780635c975abb1461037c5780636352211e1461039a57806370a08231146103ca576101cf565b80631b417278146102da57806323b872dd1461030e5780632558e25f1461032a576101cf565b80630917cffe116101ad5780630917cffe14610252578063095ea7b31461027057806318160ddd1461028c5780631b0a1aed146102aa576101cf565b806301ffc9a7146101d457806306fdde0314610204578063081812fc14610222575b600080fd5b6101ee60048036038101906101e99190612e80565b6105e6565b6040516101fb91906139eb565b60405180910390f35b61020c6106c8565b6040516102199190613a06565b60405180910390f35b61023c60048036038101906102379190612ed2565b61075a565b604051610249919061390f565b60405180910390f35b61025a6107df565b6040516102679190613ce8565b60405180910390f35b61028a60048036038101906102859190612e44565b6107e5565b005b6102946108fd565b6040516102a19190613ce8565b60405180910390f35b6102c460048036038101906102bf9190612cd9565b610903565b6040516102d191906139c9565b60405180910390f35b6102f460048036038101906102ef9190612ed2565b610a43565b604051610305959493929190613d03565b60405180910390f35b61032860048036038101906103239190612d3e565b610a89565b005b610344600480360381019061033f9190612ed2565b610ae9565b6040516103579796959493929190613d56565b60405180910390f35b61037a60048036038101906103759190612d3e565b610c9b565b005b610384610cbb565b60405161039191906139eb565b60405180910390f35b6103b460048036038101906103af9190612ed2565b610cd2565b6040516103c1919061390f565b60405180910390f35b6103e460048036038101906103df9190612cd9565b610d84565b6040516103f19190613ce8565b60405180910390f35b610402610e3c565b005b61040c610f79565b604051610419919061390f565b60405180910390f35b61043c60048036038101906104379190612f37565b610fa3565b6040516104499190613ce8565b60405180910390f35b61045a610fc2565b6040516104679190613a06565b60405180910390f35b610478611054565b6040516104859190613ce8565b60405180910390f35b6104a860048036038101906104a39190612e08565b61105e565b005b6104c460048036038101906104bf9190612d8d565b6111df565b005b6104e060048036038101906104db9190612d3e565b611241565b005b6104fc60048036038101906104f79190612ed2565b6113ef565b6040516105099190613a06565b60405180910390f35b61052c60048036038101906105279190612efb565b611496565b6040516105399190613ce8565b60405180910390f35b61054a611846565b604051610557919061390f565b60405180910390f35b61057a60048036038101906105759190612d02565b611870565b60405161058791906139eb565b60405180910390f35b6105aa60048036038101906105a59190612ed2565b611904565b005b6105c660048036038101906105c19190612cd9565b6119f8565b005b6105d0611ba4565b6040516105dd9190613ce8565b60405180910390f35b60007f80ac58cd000000000000000000000000000000000000000000000000000000007bffffffffffffffffffffffffffffffffffffffffffffffffffffffff1916827bffffffffffffffffffffffffffffffffffffffffffffffffffffffff191614806106b157507f5b5e139f000000000000000000000000000000000000000000000000000000007bffffffffffffffffffffffffffffffffffffffffffffffffffffffff1916827bffffffffffffffffffffffffffffffffffffffffffffffffffffffff1916145b806106c157506106c082611baa565b5b9050919050565b6060600080546106d790614113565b80601f016020809104026020016040519081016040528092919081815260200182805461070390614113565b80156107505780601f1061072557610100808354040283529160200191610750565b820191906000526020600020905b81548152906001019060200180831161073357829003601f168201915b5050505050905090565b600061076582611c14565b6107a4576040517f08c379a000000000000000000000000000000000000000000000000000000000815260040161079b90613be8565b60405180910390fd5b6004600083815260200190815260200160002060009054906101000a900473ffffffffffffffffffffffffffffffffffffffff169050919050565b600a5481565b60006107f082610cd2565b90508073ffffffffffffffffffffffffffffffffffffffff168373ffffffffffffffffffffffffffffffffffffffff161415610861576040517f08c379a000000000000000000000000000000000000000000000000000000000815260040161085890613c68565b60405180910390fd5b8073ffffffffffffffffffffffffffffffffffffffff16610880611c80565b73ffffffffffffffffffffffffffffffffffffffff1614806108af57506108ae816108a9611c80565b611870565b5b6108ee576040517f08c379a00000000000000000000000000000000000000000000000000000000081526004016108e590613b28565b60405180910390fd5b6108f88383611c88565b505050565b600b5481565b6060600061091083610d84565b90506000808267ffffffffffffffff811115610955577f4e487b7100000000000000000000000000000000000000000000000000000000600052604160045260246000fd5b6040519080825280602002602001820160405280156109835781602001602082028036833780820191505090505b50905060005b600b54811015610a37578573ffffffffffffffffffffffffffffffffffffffff166109b382610cd2565b73ffffffffffffffffffffffffffffffffffffffff161415610a245780828481518110610a09577f4e487b7100000000000000000000000000000000000000000000000000000000600052603260045260246000fd5b6020026020010181815250508280610a2090614145565b9350505b8080610a2f90614145565b915050610989565b50809350505050919050565b600c8181548110610a5357600080fd5b90600052602060002090600502016000915090508060000154908060010154908060020154908060030154908060040154905085565b610a9a610a94611c80565b82611d41565b610ad9576040517f08c379a0000000000000000000000000000000000000000000000000000000008152600401610ad090613c88565b60405180910390fd5b610ae4838383611e1f565b505050565b6000806000806000806000600c8881548110610b2e577f4e487b7100000000000000000000000000000000000000000000000000000000600052603260045260246000fd5b906000526020600020906005020160030154600c8981548110610b7a577f4e487b7100000000000000000000000000000000000000000000000000000000600052603260045260246000fd5b906000526020600020906005020160040154600c8a81548110610bc6577f4e487b7100000000000000000000000000000000000000000000000000000000600052603260045260246000fd5b906000526020600020906005020160000154600c8b81548110610c12577f4e487b7100000000000000000000000000000000000000000000000000000000600052603260045260246000fd5b906000526020600020906005020160010154600c8c81548110610c5e577f4e487b7100000000000000000000000000000000000000000000000000000000600052603260045260246000fd5b906000526020600020906005020160020154610c798d610cd2565b610c828e61075a565b9650965096509650965096509650919395979092949650565b610cb6838383604051806020016040528060008152506111df565b505050565b6000600860009054906101000a900460ff16905090565b6000806002600084815260200190815260200160002060009054906101000a900473ffffffffffffffffffffffffffffffffffffffff169050600073ffffffffffffffffffffffffffffffffffffffff168173ffffffffffffffffffffffffffffffffffffffff161415610d7b576040517f08c379a0000000000000000000000000000000000000000000000000000000008152600401610d7290613b68565b60405180910390fd5b80915050919050565b60008073ffffffffffffffffffffffffffffffffffffffff168273ffffffffffffffffffffffffffffffffffffffff161415610df5576040517f08c379a0000000000000000000000000000000000000000000000000000000008152600401610dec90613b48565b60405180910390fd5b600360008373ffffffffffffffffffffffffffffffffffffffff1673ffffffffffffffffffffffffffffffffffffffff168152602001908152602001600020549050919050565b610e44611c80565b73ffffffffffffffffffffffffffffffffffffffff16610e62610f79565b73ffffffffffffffffffffffffffffffffffffffff1614610eb8576040517f08c379a0000000000000000000000000000000000000000000000000000000008152600401610eaf90613c08565b60405180910390fd5b600073ffffffffffffffffffffffffffffffffffffffff16600660009054906101000a900473ffffffffffffffffffffffffffffffffffffffff1673ffffffffffffffffffffffffffffffffffffffff167f8be0079c531659141344cd1fd0a4f28419497f9722a3daafe3b4186f6b6457e060405160405180910390a36000600660006101000a81548173ffffffffffffffffffffffffffffffffffffffff021916908373ffffffffffffffffffffffffffffffffffffffff160217905550565b6000600660009054906101000a900473ffffffffffffffffffffffffffffffffffffffff16905090565b600080610fb3878787878761207b565b90508091505095945050505050565b606060018054610fd190614113565b80601f0160208091040260200160405190810160405280929190818152602001828054610ffd90614113565b801561104a5780601f1061101f5761010080835404028352916020019161104a565b820191906000526020600020905b81548152906001019060200180831161102d57829003601f168201915b5050505050905090565b6000600b54905090565b611066611c80565b73ffffffffffffffffffffffffffffffffffffffff168273ffffffffffffffffffffffffffffffffffffffff1614156110d4576040517f08c379a00000000000000000000000000000000000000000000000000000000081526004016110cb90613ac8565b60405180910390fd5b80600560006110e1611c80565b73ffffffffffffffffffffffffffffffffffffffff1673ffffffffffffffffffffffffffffffffffffffff16815260200190815260200160002060008473ffffffffffffffffffffffffffffffffffffffff1673ffffffffffffffffffffffffffffffffffffffff16815260200190815260200160002060006101000a81548160ff0219169083151502179055508173ffffffffffffffffffffffffffffffffffffffff1661118e611c80565b73ffffffffffffffffffffffffffffffffffffffff167f17307eab39ab6107e8899845ad3d59bd9653f200f220920489ca2b5937696c31836040516111d391906139eb565b60405180910390a35050565b6111f06111ea611c80565b83611d41565b61122f576040517f08c379a000000000000000000000000000000000000000000000000000000000815260040161122690613c88565b60405180910390fd5b61123b848484846121dc565b50505050565b60026007541415611287576040517f08c379a000000000000000000000000000000000000000000000000000000000815260040161127e90613ca8565b60405180910390fd5b6002600781905550611297610cbb565b156112d7576040517f08c379a00000000000000000000000000000000000000000000000000000000081526004016112ce90613b08565b60405180910390fd5b600073ffffffffffffffffffffffffffffffffffffffff168273ffffffffffffffffffffffffffffffffffffffff161415611347576040517f08c379a000000000000000000000000000000000000000000000000000000000815260040161133e90613a68565b60405180910390fd5b3073ffffffffffffffffffffffffffffffffffffffff168273ffffffffffffffffffffffffffffffffffffffff1614156113b6576040517f08c379a00000000000000000000000000000000000000000000000000000000081526004016113ad90613b88565b60405180910390fd5b600115156113cb6113c5611c80565b83611d41565b1515146113d757600080fd5b6113e2838383610c9b565b6001600781905550505050565b60606113fa82611c14565b611439576040517f08c379a000000000000000000000000000000000000000000000000000000000815260040161143090613c48565b60405180910390fd5b6000611443612238565b90506000815111611463576040518060200160405280600081525061148e565b8061146d8461224f565b60405160200161147e9291906138ae565b6040516020818303038152906040525b915050919050565b60006114a0610cbb565b156114e0576040517f08c379a00000000000000000000000000000000000000000000000000000000081526004016114d790613b08565b60405180910390fd5b6114e8611c80565b73ffffffffffffffffffffffffffffffffffffffff1661150784610cd2565b73ffffffffffffffffffffffffffffffffffffffff16148015611564575061152d611c80565b73ffffffffffffffffffffffffffffffffffffffff1661154c83610cd2565b73ffffffffffffffffffffffffffffffffffffffff16145b6115a3576040517f08c379a000000000000000000000000000000000000000000000000000000000815260040161159a90613bc8565b60405180910390fd5b6000600c84815481106115df577f4e487b7100000000000000000000000000000000000000000000000000000000600052603260045260246000fd5b90600052602060002090600502016003015490506000600c848154811061162f577f4e487b7100000000000000000000000000000000000000000000000000000000600052603260045260246000fd5b9060005260206000209060050201600301549050600061164f83836123fc565b9050600061165d87876126ae565b9050600061167588888486611670611c80565b61207b565b90507f8e3541d6cb6a06d3a1785ca3c18fa6ca7b39a6278433734c442e2ebfe623e2ea81600c83815481106116d3577f4e487b7100000000000000000000000000000000000000000000000000000000600052603260045260246000fd5b906000526020600020906005020160030154600c848154811061171f577f4e487b7100000000000000000000000000000000000000000000000000000000600052603260045260246000fd5b906000526020600020906005020160040154600c858154811061176b577f4e487b7100000000000000000000000000000000000000000000000000000000600052603260045260246000fd5b906000526020600020906005020160000154600c86815481106117b7577f4e487b7100000000000000000000000000000000000000000000000000000000600052603260045260246000fd5b906000526020600020906005020160010154600c8781548110611803577f4e487b7100000000000000000000000000000000000000000000000000000000600052603260045260246000fd5b90600052602060002090600502016002015461181d611c80565b6040516118309796959493929190613dc5565b60405180910390a1809550505050505092915050565b6000600860019054906101000a900473ffffffffffffffffffffffffffffffffffffffff16905090565b6000600560008473ffffffffffffffffffffffffffffffffffffffff1673ffffffffffffffffffffffffffffffffffffffff16815260200190815260200160002060008373ffffffffffffffffffffffffffffffffffffffff1673ffffffffffffffffffffffffffffffffffffffff16815260200190815260200160002060009054906101000a900460ff16905092915050565b61190c611c80565b73ffffffffffffffffffffffffffffffffffffffff1661192a610f79565b73ffffffffffffffffffffffffffffffffffffffff1614611980576040517f08c379a000000000000000000000000000000000000000000000000000000000815260040161197790613c08565b60405180910390fd5b600954600a54106119c6576040517f08c379a00000000000000000000000000000000000000000000000000000000081526004016119bd90613cc8565b60405180910390fd5b600a60008154809291906119d990614145565b91905055506119f46000806000846119ef611c80565b61207b565b5050565b611a00611c80565b73ffffffffffffffffffffffffffffffffffffffff16611a1e610f79565b73ffffffffffffffffffffffffffffffffffffffff1614611a74576040517f08c379a0000000000000000000000000000000000000000000000000000000008152600401611a6b90613c08565b60405180910390fd5b600073ffffffffffffffffffffffffffffffffffffffff168173ffffffffffffffffffffffffffffffffffffffff161415611ae4576040517f08c379a0000000000000000000000000000000000000000000000000000000008152600401611adb90613a48565b60405180910390fd5b8073ffffffffffffffffffffffffffffffffffffffff16600660009054906101000a900473ffffffffffffffffffffffffffffffffffffffff1673ffffffffffffffffffffffffffffffffffffffff167f8be0079c531659141344cd1fd0a4f28419497f9722a3daafe3b4186f6b6457e060405160405180910390a380600660006101000a81548173ffffffffffffffffffffffffffffffffffffffff021916908373ffffffffffffffffffffffffffffffffffffffff16021790555050565b60095481565b60007f01ffc9a7000000000000000000000000000000000000000000000000000000007bffffffffffffffffffffffffffffffffffffffffffffffffffffffff1916827bffffffffffffffffffffffffffffffffffffffffffffffffffffffff1916149050919050565b60008073ffffffffffffffffffffffffffffffffffffffff166002600084815260200190815260200160002060009054906101000a900473ffffffffffffffffffffffffffffffffffffffff1673ffffffffffffffffffffffffffffffffffffffff1614159050919050565b600033905090565b816004600083815260200190815260200160002060006101000a81548173ffffffffffffffffffffffffffffffffffffffff021916908373ffffffffffffffffffffffffffffffffffffffff160217905550808273ffffffffffffffffffffffffffffffffffffffff16611cfb83610cd2565b73ffffffffffffffffffffffffffffffffffffffff167f8c5be1e5ebec7d5bd14f71427d1e84f3dd0314c0f7b2291e5b200ac8c7c3b92560405160405180910390a45050565b6000611d4c82611c14565b611d8b576040517f08c379a0000000000000000000000000000000000000000000000000000000008152600401611d8290613ae8565b60405180910390fd5b6000611d9683610cd2565b90508073ffffffffffffffffffffffffffffffffffffffff168473ffffffffffffffffffffffffffffffffffffffff161480611e0557508373ffffffffffffffffffffffffffffffffffffffff16611ded8461075a565b73ffffffffffffffffffffffffffffffffffffffff16145b80611e165750611e158185611870565b5b91505092915050565b8273ffffffffffffffffffffffffffffffffffffffff16611e3f82610cd2565b73ffffffffffffffffffffffffffffffffffffffff1614611e95576040517f08c379a0000000000000000000000000000000000000000000000000000000008152600401611e8c90613c28565b60405180910390fd5b600073ffffffffffffffffffffffffffffffffffffffff168273ffffffffffffffffffffffffffffffffffffffff161415611f05576040517f08c379a0000000000000000000000000000000000000000000000000000000008152600401611efc90613aa8565b60405180910390fd5b611f108383836127c5565b611f1b600082611c88565b6001600360008573ffffffffffffffffffffffffffffffffffffffff1673ffffffffffffffffffffffffffffffffffffffff1681526020019081526020016000206000828254611f6b9190613ff2565b925050819055506001600360008473ffffffffffffffffffffffffffffffffffffffff1673ffffffffffffffffffffffffffffffffffffffff1681526020019081526020016000206000828254611fc29190613f11565b92505081905550816002600083815260200190815260200160002060006101000a81548173ffffffffffffffffffffffffffffffffffffffff021916908373ffffffffffffffffffffffffffffffffffffffff160217905550808273ffffffffffffffffffffffffffffffffffffffff168473ffffffffffffffffffffffffffffffffffffffff167fddf252ad1be2c89b69c2b068fc378daa952ba7f163c4a11628f55a4df523b3ef60405160405180910390a4505050565b6000612085610cbb565b156120c5576040517f08c379a00000000000000000000000000000000000000000000000000000000081526004016120bc90613b08565b60405180910390fd5b60006040518060a00160405280888152602001878152602001868152602001858152602001428152509050600b600081548092919061210390614145565b9190505550600c8190806001815401808255809150506001900390600052602060002090600502016000909190919091506000820151816000015560208201518160010155604082015181600201556060820151816003015560808201518160040155505060006121836001600c805490506127ca90919063ffffffff16565b905061218f84826127e0565b7f0b1e9a74eeaae184646d7a35062426460c8c9364005c6d441cce036dd9c655d584828a8a896040516121c6959493929190613976565b60405180910390a1809250505095945050505050565b6121e7848484611e1f565b6121f3848484846127fe565b612232576040517f08c379a000000000000000000000000000000000000000000000000000000000815260040161222990613a28565b60405180910390fd5b50505050565b606060405180602001604052806000815250905090565b60606000821415612297576040518060400160405280600181526020017f300000000000000000000000000000000000000000000000000000000000000081525090506123f7565b600082905060005b600082146122c95780806122b290614145565b915050600a826122c29190613f67565b915061229f565b60008167ffffffffffffffff81111561230b577f4e487b7100000000000000000000000000000000000000000000000000000000600052604160045260246000fd5b6040519080825280601f01601f19166020018201604052801561233d5781602001600182028036833780820191505090505b5090505b600085146123f0576001826123569190613ff2565b9150600a856123659190614198565b60306123719190613f11565b60f81b8183815181106123ad577f4e487b7100000000000000000000000000000000000000000000000000000000600052603260045260246000fd5b60200101907effffffffffffffffffffffffffffffffffffffffffffffffffffffffffffff1916908160001a905350600a856123e99190613f67565b9450612341565b8093505050505b919050565b6000612406612be5565b6000612410612995565b90506000600790506000600190505b60808111612525576000818460ff16161461248e576064876124419190614198565b60ff16848360ff1660088110612480577f4e487b7100000000000000000000000000000000000000000000000000000000600052603260045260246000fd5b6020020181815250506124e4565b60648661249b9190614198565b60ff16848360ff16600881106124da577f4e487b7100000000000000000000000000000000000000000000000000000000600052603260045260246000fd5b6020020181815250505b6064876124f19190613f67565b96506064866125009190613f67565b9550818061250d906140e9565b9250915060028161251e9190613f98565b905061241f565b5060008260ff16600b54600c6001600c805490506125439190613ff2565b8154811061257a577f4e487b7100000000000000000000000000000000000000000000000000000000600052603260045260246000fd5b90600052602060002090600502016003015460405160200161259e939291906138d2565b6040516020818303038152906040528051906020012060001c9050600a6059826125c89190614198565b6125d29190613f11565b9050808460006008811061260f577f4e487b7100000000000000000000000000000000000000000000000000000000600052603260045260246000fd5b602002018181525050600080600090505b600881101561269f57858160088110612662577f4e487b7100000000000000000000000000000000000000000000000000000000600052603260045260246000fd5b6020020151826126729190613f11565b91506007811461268c576064826126899190613f98565b91505b808061269790614145565b915050612620565b50809550505050505092915050565b600080600c84815481106126eb577f4e487b7100000000000000000000000000000000000000000000000000000000600052603260045260246000fd5b90600052602060002090600502016002015490506000600c848154811061273b577f4e487b7100000000000000000000000000000000000000000000000000000000600052603260045260246000fd5b906000526020600020906005020160020154905060006002600a83856127619190613f11565b61276b9190613f98565b6127759190613f67565b90506000600a826127869190614198565b111561279b576005816127999190613f11565b505b60006001600a836127ac9190613f67565b6127b69190613f11565b90508094505050505092915050565b505050565b600081836127d89190613ff2565b905092915050565b6127fa8282604051806020016040528060008152506129a9565b5050565b600061281f8473ffffffffffffffffffffffffffffffffffffffff16612a04565b15612988578373ffffffffffffffffffffffffffffffffffffffff1663150b7a02612848611c80565b8786866040518563ffffffff1660e01b815260040161286a949392919061392a565b602060405180830381600087803b15801561288457600080fd5b505af19250505080156128b557506040513d601f19601f820116820180604052508101906128b29190612ea9565b60015b612938573d80600081146128e5576040519150601f19603f3d011682016040523d82523d6000602084013e6128ea565b606091505b50600081511415612930576040517f08c379a000000000000000000000000000000000000000000000000000000000815260040161292790613a28565b60405180910390fd5b805181602001fd5b63150b7a0260e01b7bffffffffffffffffffffffffffffffffffffffffffffffffffffffff1916817bffffffffffffffffffffffffffffffffffffffffffffffffffffffff19161491505061298d565b600190505b949350505050565b600060ff426129a49190614198565b905090565b6129b38383612a17565b6129c060008484846127fe565b6129ff576040517f08c379a00000000000000000000000000000000000000000000000000000000081526004016129f690613a28565b60405180910390fd5b505050565b600080823b905060008111915050919050565b600073ffffffffffffffffffffffffffffffffffffffff168273ffffffffffffffffffffffffffffffffffffffff161415612a87576040517f08c379a0000000000000000000000000000000000000000000000000000000008152600401612a7e90613ba8565b60405180910390fd5b612a9081611c14565b15612ad0576040517f08c379a0000000000000000000000000000000000000000000000000000000008152600401612ac790613a88565b60405180910390fd5b612adc600083836127c5565b6001600360008473ffffffffffffffffffffffffffffffffffffffff1673ffffffffffffffffffffffffffffffffffffffff1681526020019081526020016000206000828254612b2c9190613f11565b92505081905550816002600083815260200190815260200160002060006101000a81548173ffffffffffffffffffffffffffffffffffffffff021916908373ffffffffffffffffffffffffffffffffffffffff160217905550808273ffffffffffffffffffffffffffffffffffffffff16600073ffffffffffffffffffffffffffffffffffffffff167fddf252ad1be2c89b69c2b068fc378daa952ba7f163c4a11628f55a4df523b3ef60405160405180910390a45050565b604051806101000160405280600890602082028036833780820191505090505090565b6000612c1b612c1684613e65565b613e34565b905082815260208101848484011115612c3357600080fd5b612c3e8482856140a7565b509392505050565b600081359050612c5581614296565b92915050565b600081359050612c6a816142ad565b92915050565b600081359050612c7f816142c4565b92915050565b600081519050612c94816142c4565b92915050565b600082601f830112612cab57600080fd5b8135612cbb848260208601612c08565b91505092915050565b600081359050612cd3816142db565b92915050565b600060208284031215612ceb57600080fd5b6000612cf984828501612c46565b91505092915050565b60008060408385031215612d1557600080fd5b6000612d2385828601612c46565b9250506020612d3485828601612c46565b9150509250929050565b600080600060608486031215612d5357600080fd5b6000612d6186828701612c46565b9350506020612d7286828701612c46565b9250506040612d8386828701612cc4565b9150509250925092565b60008060008060808587031215612da357600080fd5b6000612db187828801612c46565b9450506020612dc287828801612c46565b9350506040612dd387828801612cc4565b925050606085013567ffffffffffffffff811115612df057600080fd5b612dfc87828801612c9a565b91505092959194509250565b60008060408385031215612e1b57600080fd5b6000612e2985828601612c46565b9250506020612e3a85828601612c5b565b9150509250929050565b60008060408385031215612e5757600080fd5b6000612e6585828601612c46565b9250506020612e7685828601612cc4565b9150509250929050565b600060208284031215612e9257600080fd5b6000612ea084828501612c70565b91505092915050565b600060208284031215612ebb57600080fd5b6000612ec984828501612c85565b91505092915050565b600060208284031215612ee457600080fd5b6000612ef284828501612cc4565b91505092915050565b60008060408385031215612f0e57600080fd5b6000612f1c85828601612cc4565b9250506020612f2d85828601612cc4565b9150509250929050565b600080600080600060a08688031215612f4f57600080fd5b6000612f5d88828901612cc4565b9550506020612f6e88828901612cc4565b9450506040612f7f88828901612cc4565b9350506060612f9088828901612cc4565b9250506080612fa188828901612c46565b9150509295509295909350565b6000612fba8383613879565b60208301905092915050565b612fcf81614026565b82525050565b6000612fe082613ea5565b612fea8185613ed3565b9350612ff583613e95565b8060005b8381101561302657815161300d8882612fae565b975061301883613ec6565b925050600181019050612ff9565b5085935050505092915050565b61303c81614038565b82525050565b600061304d82613eb0565b6130578185613ee4565b93506130678185602086016140b6565b61307081614285565b840191505092915050565b600061308682613ebb565b6130908185613ef5565b93506130a08185602086016140b6565b6130a981614285565b840191505092915050565b60006130bf82613ebb565b6130c98185613f06565b93506130d98185602086016140b6565b80840191505092915050565b60006130f2603283613ef5565b91507f4552433732313a207472616e7366657220746f206e6f6e20455243373231526560008301527f63656976657220696d706c656d656e74657200000000000000000000000000006020830152604082019050919050565b6000613158602683613ef5565b91507f4f776e61626c653a206e6577206f776e657220697320746865207a65726f206160008301527f64647265737300000000000000000000000000000000000000000000000000006020830152604082019050919050565b60006131be601c83613ef5565b91507f7472616e7366657220746f20746865207a65726f2061646472657373000000006000830152602082019050919050565b60006131fe601c83613ef5565b91507f4552433732313a20746f6b656e20616c7265616479206d696e746564000000006000830152602082019050919050565b600061323e602483613ef5565b91507f4552433732313a207472616e7366657220746f20746865207a65726f2061646460008301527f72657373000000000000000000000000000000000000000000000000000000006020830152604082019050919050565b60006132a4601983613ef5565b91507f4552433732313a20617070726f766520746f2063616c6c6572000000000000006000830152602082019050919050565b60006132e4602c83613ef5565b91507f4552433732313a206f70657261746f7220717565727920666f72206e6f6e657860008301527f697374656e7420746f6b656e00000000000000000000000000000000000000006020830152604082019050919050565b600061334a601083613ef5565b91507f5061757361626c653a20706175736564000000000000000000000000000000006000830152602082019050919050565b600061338a603883613ef5565b91507f4552433732313a20617070726f76652063616c6c6572206973206e6f74206f7760008301527f6e6572206e6f7220617070726f76656420666f7220616c6c00000000000000006020830152604082019050919050565b60006133f0602a83613ef5565b91507f4552433732313a2062616c616e636520717565727920666f7220746865207a6560008301527f726f2061646472657373000000000000000000000000000000000000000000006020830152604082019050919050565b6000613456602983613ef5565b91507f4552433732313a206f776e657220717565727920666f72206e6f6e657869737460008301527f656e7420746f6b656e00000000000000000000000000000000000000000000006020830152604082019050919050565b60006134bc601183613ef5565b91507f43616e2774207472616e7366657220746f0000000000000000000000000000006000830152602082019050919050565b60006134fc602083613ef5565b91507f4552433732313a206d696e7420746f20746865207a65726f20616464726573736000830152602082019050919050565b600061353c602383613ef5565b91507f6d757374206265206f776e6572206f6620626f746820706172656e7420746f6b60008301527f656e7300000000000000000000000000000000000000000000000000000000006020830152604082019050919050565b60006135a2602c83613ef5565b91507f4552433732313a20617070726f76656420717565727920666f72206e6f6e657860008301527f697374656e7420746f6b656e00000000000000000000000000000000000000006020830152604082019050919050565b6000613608602083613ef5565b91507f4f776e61626c653a2063616c6c6572206973206e6f7420746865206f776e65726000830152602082019050919050565b6000613648602983613ef5565b91507f4552433732313a207472616e73666572206f6620746f6b656e2074686174206960008301527f73206e6f74206f776e00000000000000000000000000000000000000000000006020830152604082019050919050565b60006136ae602f83613ef5565b91507f4552433732314d657461646174613a2055524920717565727920666f72206e6f60008301527f6e6578697374656e7420746f6b656e00000000000000000000000000000000006020830152604082019050919050565b6000613714602183613ef5565b91507f4552433732313a20617070726f76616c20746f2063757272656e74206f776e6560008301527f72000000000000000000000000000000000000000000000000000000000000006020830152604082019050919050565b600061377a603183613ef5565b91507f4552433732313a207472616e736665722063616c6c6572206973206e6f74206f60008301527f776e6572206e6f7220617070726f7665640000000000000000000000000000006020830152604082019050919050565b60006137e0601f83613ef5565b91507f5265656e7472616e637947756172643a207265656e7472616e742063616c6c006000830152602082019050919050565b6000613820602783613ef5565b91507f4d6178696d756d20616d6f756e74206f662067656e2030206d6f6e6b6579732060008301527f72656163686564000000000000000000000000000000000000000000000000006020830152604082019050919050565b61388281614090565b82525050565b61389181614090565b82525050565b6138a86138a382614090565b61418e565b82525050565b60006138ba82856130b4565b91506138c682846130b4565b91508190509392505050565b60006138de8286613897565b6020820191506138ee8285613897565b6020820191506138fe8284613897565b602082019150819050949350505050565b60006020820190506139246000830184612fc6565b92915050565b600060808201905061393f6000830187612fc6565b61394c6020830186612fc6565b6139596040830185613888565b818103606083015261396b8184613042565b905095945050505050565b600060a08201905061398b6000830188612fc6565b6139986020830187613888565b6139a56040830186613888565b6139b26060830185613888565b6139bf6080830184613888565b9695505050505050565b600060208201905081810360008301526139e38184612fd5565b905092915050565b6000602082019050613a006000830184613033565b92915050565b60006020820190508181036000830152613a20818461307b565b905092915050565b60006020820190508181036000830152613a41816130e5565b9050919050565b60006020820190508181036000830152613a618161314b565b9050919050565b60006020820190508181036000830152613a81816131b1565b9050919050565b60006020820190508181036000830152613aa1816131f1565b9050919050565b60006020820190508181036000830152613ac181613231565b9050919050565b60006020820190508181036000830152613ae181613297565b9050919050565b60006020820190508181036000830152613b01816132d7565b9050919050565b60006020820190508181036000830152613b218161333d565b9050919050565b60006020820190508181036000830152613b418161337d565b9050919050565b60006020820190508181036000830152613b61816133e3565b9050919050565b60006020820190508181036000830152613b8181613449565b9050919050565b60006020820190508181036000830152613ba1816134af565b9050919050565b60006020820190508181036000830152613bc1816134ef565b9050919050565b60006020820190508181036000830152613be18161352f565b9050919050565b60006020820190508181036000830152613c0181613595565b9050919050565b60006020820190508181036000830152613c21816135fb565b9050919050565b60006020820190508181036000830152613c418161363b565b9050919050565b60006020820190508181036000830152613c61816136a1565b9050919050565b60006020820190508181036000830152613c8181613707565b9050919050565b60006020820190508181036000830152613ca18161376d565b9050919050565b60006020820190508181036000830152613cc1816137d3565b9050919050565b60006020820190508181036000830152613ce181613813565b9050919050565b6000602082019050613cfd6000830184613888565b92915050565b600060a082019050613d186000830188613888565b613d256020830187613888565b613d326040830186613888565b613d3f6060830185613888565b613d4c6080830184613888565b9695505050505050565b600060e082019050613d6b600083018a613888565b613d786020830189613888565b613d856040830188613888565b613d926060830187613888565b613d9f6080830186613888565b613dac60a0830185612fc6565b613db960c0830184612fc6565b98975050505050505050565b600060e082019050613dda600083018a613888565b613de76020830189613888565b613df46040830188613888565b613e016060830187613888565b613e0e6080830186613888565b613e1b60a0830185613888565b613e2860c0830184612fc6565b98975050505050505050565b6000604051905081810181811067ffffffffffffffff82111715613e5b57613e5a614256565b5b8060405250919050565b600067ffffffffffffffff821115613e8057613e7f614256565b5b601f19601f8301169050602081019050919050565b6000819050602082019050919050565b600081519050919050565b600081519050919050565b600081519050919050565b6000602082019050919050565b600082825260208201905092915050565b600082825260208201905092915050565b600082825260208201905092915050565b600081905092915050565b6000613f1c82614090565b9150613f2783614090565b9250827fffffffffffffffffffffffffffffffffffffffffffffffffffffffffffffffff03821115613f5c57613f5b6141c9565b5b828201905092915050565b6000613f7282614090565b9150613f7d83614090565b925082613f8d57613f8c6141f8565b5b828204905092915050565b6000613fa382614090565b9150613fae83614090565b9250817fffffffffffffffffffffffffffffffffffffffffffffffffffffffffffffffff0483118215151615613fe757613fe66141c9565b5b828202905092915050565b6000613ffd82614090565b915061400883614090565b92508282101561401b5761401a6141c9565b5b828203905092915050565b600061403182614070565b9050919050565b60008115159050919050565b60007fffffffff0000000000000000000000000000000000000000000000000000000082169050919050565b600073ffffffffffffffffffffffffffffffffffffffff82169050919050565b6000819050919050565b600060ff82169050919050565b82818337600083830152505050565b60005b838110156140d45780820151818401526020810190506140b9565b838111156140e3576000848401525b50505050565b60006140f48261409a565b91506000821415614108576141076141c9565b5b600182039050919050565b6000600282049050600182168061412b57607f821691505b6020821081141561413f5761413e614227565b5b50919050565b600061415082614090565b91507fffffffffffffffffffffffffffffffffffffffffffffffffffffffffffffffff821415614183576141826141c9565b5b600182019050919050565b6000819050919050565b60006141a382614090565b91506141ae83614090565b9250826141be576141bd6141f8565b5b828206905092915050565b7f4e487b7100000000000000000000000000000000000000000000000000000000600052601160045260246000fd5b7f4e487b7100000000000000000000000000000000000000000000000000000000600052601260045260246000fd5b7f4e487b7100000000000000000000000000000000000000000000000000000000600052602260045260246000fd5b7f4e487b7100000000000000000000000000000000000000000000000000000000600052604160045260246000fd5b6000601f19601f8301169050919050565b61429f81614026565b81146142aa57600080fd5b50565b6142b681614038565b81146142c157600080fd5b50565b6142cd81614044565b81146142d857600080fd5b50565b6142e481614090565b81146142ef57600080fd5b5056fea2646970667358221220a3e79053a190a2d8828f1a1d2f9a09ee8a072c152202d92956ec1d60accedbb564736f6c63430008000033",
  "linkReferences": {},
  "deployedLinkReferences": {}
}