{
  "_format": "hh-sol-artifact-1",
  "contractName": "MonkeyMarketplace",
  "sourceName": "contracts/MonkeyMarketplace.sol",
  "abi": [
    {
      "inputs": [
        {
          "internalType": "address",
          "name": "_constructorMonkeyContractAddress",
          "type": "address"
        }
      ],
      "stateMutability": "nonpayable",
      "type": "constructor"
    },
    {
      "anonymous": false,
      "inputs": [
        {
          "indexed": false,
          "internalType": "string",
          "name": "TxType",
          "type": "string"
        },
        {
          "indexed": false,
          "internalType": "address",
          "name": "owner",
          "type": "address"
        },
        {
          "indexed": false,
          "internalType": "uint256",
          "name": "tokenId",
          "type": "uint256"
        }
      ],
      "name": "MarketTransaction",
      "type": "event"
    },
    {
      "anonymous": false,
      "inputs": [
        {
          "indexed": true,
          "internalType": "address",
          "name": "previousOwner",
          "type": "address"
        },
        {
          "indexed": true,
          "internalType": "address",
          "name": "newOwner",
          "type": "address"
        }
      ],
      "name": "OwnershipTransferred",
      "type": "event"
    },
    {
      "anonymous": false,
      "inputs": [
        {
          "indexed": false,
          "internalType": "address",
          "name": "account",
          "type": "address"
        }
      ],
      "name": "Paused",
      "type": "event"
    },
    {
      "anonymous": false,
      "inputs": [
        {
          "indexed": false,
          "internalType": "address",
          "name": "account",
          "type": "address"
        }
      ],
      "name": "Unpaused",
      "type": "event"
    },
    {
      "anonymous": false,
      "inputs": [
        {
          "indexed": false,
          "internalType": "address",
          "name": "seller",
          "type": "address"
        },
        {
          "indexed": false,
          "internalType": "address",
          "name": "buyer",
          "type": "address"
        },
        {
          "indexed": false,
          "internalType": "uint256",
          "name": "price",
          "type": "uint256"
        },
        {
          "indexed": false,
          "internalType": "uint256",
          "name": "tokenId",
          "type": "uint256"
        }
      ],
      "name": "monkeySold",
      "type": "event"
    },
    {
      "inputs": [
        {
          "internalType": "uint256",
          "name": "_tokenId",
          "type": "uint256"
        }
      ],
      "name": "buyMonkey",
      "outputs": [],
      "stateMutability": "payable",
      "type": "function"
    },
    {
      "inputs": [],
      "name": "getAllTokenOnSale",
      "outputs": [
        {
          "internalType": "uint256[]",
          "name": "listOfOffers",
          "type": "uint256[]"
        }
      ],
      "stateMutability": "view",
      "type": "function"
    },
    {
      "inputs": [
        {
          "internalType": "uint256",
          "name": "_tokenId",
          "type": "uint256"
        }
      ],
      "name": "getOffer",
      "outputs": [
        {
          "internalType": "address",
          "name": "seller",
          "type": "address"
        },
        {
          "internalType": "uint256",
          "name": "price",
          "type": "uint256"
        },
        {
          "internalType": "uint256",
          "name": "index",
          "type": "uint256"
        },
        {
          "internalType": "uint256",
          "name": "tokenId",
          "type": "uint256"
        },
        {
          "internalType": "bool",
          "name": "active",
          "type": "bool"
        }
      ],
      "stateMutability": "view",
      "type": "function"
    },
    {
      "inputs": [],
      "name": "owner",
      "outputs": [
        {
          "internalType": "address",
          "name": "",
          "type": "address"
        }
      ],
      "stateMutability": "view",
      "type": "function"
    },
    {
      "inputs": [],
      "name": "paused",
      "outputs": [
        {
          "internalType": "bool",
          "name": "",
          "type": "bool"
        }
      ],
      "stateMutability": "view",
      "type": "function"
    },
    {
      "inputs": [
        {
          "internalType": "uint256",
          "name": "_tokenId",
          "type": "uint256"
        }
      ],
      "name": "removeOffer",
      "outputs": [],
      "stateMutability": "nonpayable",
      "type": "function"
    },
    {
      "inputs": [],
      "name": "renounceOwnership",
      "outputs": [],
      "stateMutability": "nonpayable",
      "type": "function"
    },
    {
      "inputs": [
        {
          "internalType": "uint256",
          "name": "_price",
          "type": "uint256"
        },
        {
          "internalType": "uint256",
          "name": "_tokenId",
          "type": "uint256"
        }
      ],
      "name": "setOffer",
      "outputs": [],
      "stateMutability": "nonpayable",
      "type": "function"
    },
    {
      "inputs": [],
      "name": "showLengthOfOffersArray",
      "outputs": [
        {
          "internalType": "uint256",
          "name": "length",
          "type": "uint256"
        }
      ],
      "stateMutability": "view",
      "type": "function"
    },
    {
      "inputs": [
        {
          "internalType": "uint256",
          "name": "arrayPosition",
          "type": "uint256"
        }
      ],
      "name": "showOfferArrayEntry",
      "outputs": [
        {
          "internalType": "address",
          "name": "seller",
          "type": "address"
        },
        {
          "internalType": "uint256",
          "name": "price",
          "type": "uint256"
        },
        {
          "internalType": "uint256",
          "name": "index",
          "type": "uint256"
        },
        {
          "internalType": "uint256",
          "name": "tokenId",
          "type": "uint256"
        },
        {
          "internalType": "bool",
          "name": "active",
          "type": "bool"
        }
      ],
      "stateMutability": "view",
      "type": "function"
    },
    {
      "inputs": [
        {
          "internalType": "address",
          "name": "newOwner",
          "type": "address"
        }
      ],
      "name": "transferOwnership",
      "outputs": [],
      "stateMutability": "nonpayable",
      "type": "function"
    }
  ],
  "bytecode": "0x60806040523480156200001157600080fd5b50604051620027ea380380620027ea833981810160405281019062000037919062000284565b6000620000496200026560201b60201c565b9050806000806101000a81548173ffffffffffffffffffffffffffffffffffffffff021916908373ffffffffffffffffffffffffffffffffffffffff1602179055508073ffffffffffffffffffffffffffffffffffffffff16600073ffffffffffffffffffffffffffffffffffffffff167f8be0079c531659141344cd1fd0a4f28419497f9722a3daafe3b4186f6b6457e060405160405180910390a350600180819055506000600260006101000a81548160ff02191690831515021790555080600260016101000a81548173ffffffffffffffffffffffffffffffffffffffff021916908373ffffffffffffffffffffffffffffffffffffffff1602179055508073ffffffffffffffffffffffffffffffffffffffff16600260019054906101000a900473ffffffffffffffffffffffffffffffffffffffff1673ffffffffffffffffffffffffffffffffffffffff1663daa97fae6040518163ffffffff1660e01b815260040160206040518083038186803b158015620001ca57600080fd5b505afa158015620001df573d6000803e3d6000fd5b505050506040513d601f19601f8201168201806040525081019062000205919062000284565b73ffffffffffffffffffffffffffffffffffffffff16146200025e576040517f08c379a0000000000000000000000000000000000000000000000000000000008152600401620002559062000318565b60405180910390fd5b5062000399565b600033905090565b6000815190506200027e816200037f565b92915050565b6000602082840312156200029757600080fd5b6000620002a7848285016200026d565b91505092915050565b6000620002bf6036836200033a565b91507f434f4e5354525543544f523a3a4d6f6e6b657920636f6e74726163742061646460008301527f72657373206d757374206265207468652073616d652e000000000000000000006020830152604082019050919050565b600060208201905081810360008301526200033381620002b0565b9050919050565b600082825260208201905092915050565b600062000358826200035f565b9050919050565b600073ffffffffffffffffffffffffffffffffffffffff82169050919050565b6200038a816200034b565b81146200039657600080fd5b50565b61244180620003a96000396000f3fe60806040526004361061009c5760003560e01c8063715018a611610064578063715018a6146101955780638da5cb5b146101ac578063941b055b146101d757806395a0f9c714610200578063dfcaaa9514610229578063f2fde38b146102545761009c565b80633f50b441146100a15780634579268a146100e257806349b3709f146101235780635c975abb1461014e578063615fc0e214610179575b600080fd5b3480156100ad57600080fd5b506100c860048036038101906100c391906119a3565b61027d565b6040516100d9959493929190611fc7565b60405180910390f35b3480156100ee57600080fd5b50610109600480360381019061010491906119a3565b610414565b60405161011a959493929190611fc7565b60405180910390f35b34801561012f57600080fd5b5061013861055d565b604051610145919061201a565b60405180910390f35b34801561015a57600080fd5b50610163610816565b604051610170919061203c565b60405180910390f35b610193600480360381019061018e91906119a3565b61082d565b005b3480156101a157600080fd5b506101aa610c43565b005b3480156101b857600080fd5b506101c1610d7d565b6040516101ce9190611f07565b60405180910390f35b3480156101e357600080fd5b506101fe60048036038101906101f991906119cc565b610da6565b005b34801561020c57600080fd5b50610227600480360381019061022291906119a3565b6113da565b005b34801561023557600080fd5b5061023e611653565b60405161024b919061226b565b60405180910390f35b34801561026057600080fd5b5061027b60048036038101906102769190611928565b6116dc565b005b600080600080600061028d611885565b73ffffffffffffffffffffffffffffffffffffffff166102ab610d7d565b73ffffffffffffffffffffffffffffffffffffffff1614610301576040517f08c379a00000000000000000000000000000000000000000000000000000000081526004016102f89061218f565b60405180910390fd5b60006003878154811061033d577f4e487b7100000000000000000000000000000000000000000000000000000000600052603260045260246000fd5b90600052602060002090600502016040518060a00160405290816000820160009054906101000a900473ffffffffffffffffffffffffffffffffffffffff1673ffffffffffffffffffffffffffffffffffffffff1673ffffffffffffffffffffffffffffffffffffffff1681526020016001820154815260200160028201548152602001600382015481526020016004820160009054906101000a900460ff161515151581525050905080600001518160200151826040015183606001518460800151955095509550955095505091939590929450565b60008060008060006004600087815260200190815260200160002060040160009054906101000a900460ff1661047f576040517f08c379a0000000000000000000000000000000000000000000000000000000008152600401610476906121eb565b60405180910390fd5b6000600460008881526020019081526020016000206040518060a00160405290816000820160009054906101000a900473ffffffffffffffffffffffffffffffffffffffff1673ffffffffffffffffffffffffffffffffffffffff1673ffffffffffffffffffffffffffffffffffffffff1681526020016001820154815260200160028201548152602001600382015481526020016004820160009054906101000a900460ff161515151581525050905080600001518160200151826040015183606001518460800151955095509550955095505091939590929450565b6060600080600090505b6003805490508110156105f457600381815481106105ae577f4e487b7100000000000000000000000000000000000000000000000000000000600052603260045260246000fd5b906000526020600020906005020160040160009054906101000a900460ff16156105e15781806105dd9061234e565b9250505b80806105ec9061234e565b915050610567565b50600081141561067657600067ffffffffffffffff81111561063f577f4e487b7100000000000000000000000000000000000000000000000000000000600052604160045260246000fd5b60405190808252806020026020018201604052801561066d5781602001602082028036833780820191505090505b50915050610813565b60008167ffffffffffffffff8111156106b8577f4e487b7100000000000000000000000000000000000000000000000000000000600052604160045260246000fd5b6040519080825280602002602001820160405280156106e65781602001602082028036833780820191505090505b5090506000805b60038054905081101561080b5760038181548110610734577f4e487b7100000000000000000000000000000000000000000000000000000000600052603260045260246000fd5b906000526020600020906005020160040160009054906101000a900460ff16156107f85760038181548110610792577f4e487b7100000000000000000000000000000000000000000000000000000000600052603260045260246000fd5b9060005260206000209060050201600301548383815181106107dd577f4e487b7100000000000000000000000000000000000000000000000000000000600052603260045260246000fd5b60200260200101818152505081806107f49061234e565b9250505b80806108039061234e565b9150506106ed565b508193505050505b90565b6000600260009054906101000a900460ff16905090565b60026001541415610873576040517f08c379a000000000000000000000000000000000000000000000000000000000815260040161086a9061224b565b60405180910390fd5b6002600181905550610883610816565b156108c3576040517f08c379a00000000000000000000000000000000000000000000000000000000081526004016108ba906120d7565b60405180910390fd5b6000600460008381526020019081526020016000206040518060a00160405290816000820160009054906101000a900473ffffffffffffffffffffffffffffffffffffffff1673ffffffffffffffffffffffffffffffffffffffff1673ffffffffffffffffffffffffffffffffffffffff1681526020016001820154815260200160028201548152602001600382015481526020016004820160009054906101000a900460ff16151515158152505090506001151581608001511515146109bf576040517f08c379a00000000000000000000000000000000000000000000000000000000081526004016109b6906120b7565b60405180910390fd5b34816020015114610a05576040517f08c379a00000000000000000000000000000000000000000000000000000000081526004016109fc906120f7565b60405180910390fd5b60008160000151905060006003836040015181548110610a4e577f4e487b7100000000000000000000000000000000000000000000000000000000600052603260045260246000fd5b906000526020600020906005020160040160006101000a81548160ff02191690831515021790555060046000848152602001908152602001600020600080820160006101000a81549073ffffffffffffffffffffffffffffffffffffffff02191690556001820160009055600282016000905560038201600090556004820160006101000a81549060ff02191690555050610ae761188d565b9150600260019054906101000a900473ffffffffffffffffffffffffffffffffffffffff1673ffffffffffffffffffffffffffffffffffffffff166323b872dd8233866040518463ffffffff1660e01b8152600401610b4893929190611f22565b600060405180830381600087803b158015610b6257600080fd5b505af1158015610b76573d6000803e3d6000fd5b505050508073ffffffffffffffffffffffffffffffffffffffff166108fc349081150290604051600060405180830381858888f19350505050158015610bc0573d6000803e3d6000fd5b507fd99e4fad9ad6313b1feb588fa8e605e3a9873172f2024330c35dd2b4041a43863384604051610bf2929190612153565b60405180910390a17f9f1cc9f631ef4adfe7b8fb5180733fe8e804f452ee94cd404396f67e515136a481333486604051610c2f9493929190611f59565b60405180910390a150506001808190555050565b610c4b611885565b73ffffffffffffffffffffffffffffffffffffffff16610c69610d7d565b73ffffffffffffffffffffffffffffffffffffffff1614610cbf576040517f08c379a0000000000000000000000000000000000000000000000000000000008152600401610cb69061218f565b60405180910390fd5b600073ffffffffffffffffffffffffffffffffffffffff1660008054906101000a900473ffffffffffffffffffffffffffffffffffffffff1673ffffffffffffffffffffffffffffffffffffffff167f8be0079c531659141344cd1fd0a4f28419497f9722a3daafe3b4186f6b6457e060405160405180910390a360008060006101000a81548173ffffffffffffffffffffffffffffffffffffffff021916908373ffffffffffffffffffffffffffffffffffffffff160217905550565b60008060009054906101000a900473ffffffffffffffffffffffffffffffffffffffff16905090565b610dae610816565b15610dee576040517f08c379a0000000000000000000000000000000000000000000000000000000008152600401610de5906120d7565b60405180910390fd5b3373ffffffffffffffffffffffffffffffffffffffff16600260019054906101000a900473ffffffffffffffffffffffffffffffffffffffff1673ffffffffffffffffffffffffffffffffffffffff16636352211e836040518263ffffffff1660e01b8152600401610e60919061226b565b60206040518083038186803b158015610e7857600080fd5b505afa158015610e8c573d6000803e3d6000fd5b505050506040513d601f19601f82011682018060405250810190610eb09190611951565b73ffffffffffffffffffffffffffffffffffffffff1614610f06576040517f08c379a0000000000000000000000000000000000000000000000000000000008152600401610efd90612077565b60405180910390fd5b600260019054906101000a900473ffffffffffffffffffffffffffffffffffffffff1673ffffffffffffffffffffffffffffffffffffffff1663e985e9c533306040518363ffffffff1660e01b8152600401610f63929190611f9e565b60206040518083038186803b158015610f7b57600080fd5b505afa158015610f8f573d6000803e3d6000fd5b505050506040513d601f19601f82011682018060405250810190610fb3919061197a565b610ff2576040517f08c379a0000000000000000000000000000000000000000000000000000000008152600401610fe990612057565b60405180910390fd5b60008211611035576040517f08c379a000000000000000000000000000000000000000000000000000000000815260040161102c9061220b565b60405180910390fd5b6000600460008381526020019081526020016000206040518060a00160405290816000820160009054906101000a900473ffffffffffffffffffffffffffffffffffffffff1673ffffffffffffffffffffffffffffffffffffffff1673ffffffffffffffffffffffffffffffffffffffff1681526020016001820154815260200160028201548152602001600382015481526020016004820160009054906101000a900460ff161515151581525050905060011515816080015115151415611203576003816040015181548110611135577f4e487b7100000000000000000000000000000000000000000000000000000000600052603260045260246000fd5b9060005260206000209060050201600080820160006101000a81549073ffffffffffffffffffffffffffffffffffffffff02191690556001820160009055600282016000905560038201600090556004820160006101000a81549060ff0219169055505060046000838152602001908152602001600020600080820160006101000a81549073ffffffffffffffffffffffffffffffffffffffff02191690556001820160009055600282016000905560038201600090556004820160006101000a81549060ff021916905550505b60006040518060a001604052803373ffffffffffffffffffffffffffffffffffffffff1681526020018581526020016003805490508152602001848152602001600115158152509050806004600085815260200190815260200160002060008201518160000160006101000a81548173ffffffffffffffffffffffffffffffffffffffff021916908373ffffffffffffffffffffffffffffffffffffffff16021790555060208201518160010155604082015181600201556060820151816003015560808201518160040160006101000a81548160ff021916908315150217905550905050600381908060018154018082558091505060019003906000526020600020906005020160009091909190915060008201518160000160006101000a81548173ffffffffffffffffffffffffffffffffffffffff021916908373ffffffffffffffffffffffffffffffffffffffff16021790555060208201518160010155604082015181600201556060820151816003015560808201518160040160006101000a81548160ff02191690831515021790555050507fd99e4fad9ad6313b1feb588fa8e605e3a9873172f2024330c35dd2b4041a438633846040516113cc929190612117565b60405180910390a150505050565b6113e2610816565b15611422576040517f08c379a0000000000000000000000000000000000000000000000000000000008152600401611419906120d7565b60405180910390fd5b6000600460008381526020019081526020016000206040518060a00160405290816000820160009054906101000a900473ffffffffffffffffffffffffffffffffffffffff1673ffffffffffffffffffffffffffffffffffffffff1673ffffffffffffffffffffffffffffffffffffffff1681526020016001820154815260200160028201548152602001600382015481526020016004820160009054906101000a900460ff16151515158152505090503373ffffffffffffffffffffffffffffffffffffffff16816000015173ffffffffffffffffffffffffffffffffffffffff1614611545576040517f08c379a000000000000000000000000000000000000000000000000000000000815260040161153c9061222b565b60405180910390fd5b60006003826040015181548110611585577f4e487b7100000000000000000000000000000000000000000000000000000000600052603260045260246000fd5b906000526020600020906005020160040160006101000a81548160ff02191690831515021790555060046000838152602001908152602001600020600080820160006101000a81549073ffffffffffffffffffffffffffffffffffffffff02191690556001820160009055600282016000905560038201600090556004820160006101000a81549060ff021916905550507fd99e4fad9ad6313b1feb588fa8e605e3a9873172f2024330c35dd2b4041a438633836040516116479291906121af565b60405180910390a15050565b600061165d611885565b73ffffffffffffffffffffffffffffffffffffffff1661167b610d7d565b73ffffffffffffffffffffffffffffffffffffffff16146116d1576040517f08c379a00000000000000000000000000000000000000000000000000000000081526004016116c89061218f565b60405180910390fd5b600380549050905090565b6116e4611885565b73ffffffffffffffffffffffffffffffffffffffff16611702610d7d565b73ffffffffffffffffffffffffffffffffffffffff1614611758576040517f08c379a000000000000000000000000000000000000000000000000000000000815260040161174f9061218f565b60405180910390fd5b600073ffffffffffffffffffffffffffffffffffffffff168173ffffffffffffffffffffffffffffffffffffffff1614156117c8576040517f08c379a00000000000000000000000000000000000000000000000000000000081526004016117bf90612097565b60405180910390fd5b8073ffffffffffffffffffffffffffffffffffffffff1660008054906101000a900473ffffffffffffffffffffffffffffffffffffffff1673ffffffffffffffffffffffffffffffffffffffff167f8be0079c531659141344cd1fd0a4f28419497f9722a3daafe3b4186f6b6457e060405160405180910390a3806000806101000a81548173ffffffffffffffffffffffffffffffffffffffff021916908373ffffffffffffffffffffffffffffffffffffffff16021790555050565b600033905090565b6040518060a00160405280600073ffffffffffffffffffffffffffffffffffffffff1681526020016000815260200160008152602001600081526020016000151581525090565b6000813590506118e3816123c6565b92915050565b6000815190506118f8816123c6565b92915050565b60008151905061190d816123dd565b92915050565b600081359050611922816123f4565b92915050565b60006020828403121561193a57600080fd5b6000611948848285016118d4565b91505092915050565b60006020828403121561196357600080fd5b6000611971848285016118e9565b91505092915050565b60006020828403121561198c57600080fd5b600061199a848285016118fe565b91505092915050565b6000602082840312156119b557600080fd5b60006119c384828501611913565b91505092915050565b600080604083850312156119df57600080fd5b60006119ed85828601611913565b92505060206119fe85828601611913565b9150509250929050565b6000611a148383611ee9565b60208301905092915050565b611a2981612318565b82525050565b611a38816122d0565b82525050565b6000611a4982612296565b611a5381856122ae565b9350611a5e83612286565b8060005b83811015611a8f578151611a768882611a08565b9750611a81836122a1565b925050600181019050611a62565b5085935050505092915050565b611aa5816122e2565b82525050565b6000611ab8603c836122bf565b91507f4d61726b6574706c6163652061646472657373206e65656473206f706572617460008301527f6f72207374617475732066726f6d206d6f6e6b6579206f776e65722e000000006020830152604082019050919050565b6000611b1e6030836122bf565b91507f4f6e6c79206d6f6e6b6579206f776e65722063616e20736574206f666665722060008301527f666f72207468697320746f6b656e4964000000000000000000000000000000006020830152604082019050919050565b6000611b846026836122bf565b91507f4f776e61626c653a206e6577206f776e657220697320746865207a65726f206160008301527f64647265737300000000000000000000000000000000000000000000000000006020830152604082019050919050565b6000611bea601f836122bf565b91507f4e6f20616374697665206f6666657220666f722074686973206d6f6e6b6579006000830152602082019050919050565b6000611c2a6010836122bf565b91507f5061757361626c653a20706175736564000000000000000000000000000000006000830152602082019050919050565b6000611c6a601e836122bf565b91507f4e6f742073656e64696e672074686520636f727265637420616d6f756e7400006000830152602082019050919050565b6000611caa600c836122bf565b91507f437265617465206f6666657200000000000000000000000000000000000000006000830152602082019050919050565b6000611cea6003836122bf565b91507f42757900000000000000000000000000000000000000000000000000000000006000830152602082019050919050565b6000611d2a6020836122bf565b91507f4f776e61626c653a2063616c6c6572206973206e6f7420746865206f776e65726000830152602082019050919050565b6000611d6a600c836122bf565b91507f52656d6f7665206f6666657200000000000000000000000000000000000000006000830152602082019050919050565b6000611daa6021836122bf565b91507f4e6f20616374697665206f6666657220666f72207468697320746f6b656e496460008301527f2e000000000000000000000000000000000000000000000000000000000000006020830152604082019050919050565b6000611e106022836122bf565b91507f6f66666572207072696365206d7573742062652067726561746572207468616e60008301527f20300000000000000000000000000000000000000000000000000000000000006020830152604082019050919050565b6000611e766014836122bf565b91507f596f75277265206e6f7420746865206f776e65720000000000000000000000006000830152602082019050919050565b6000611eb6601f836122bf565b91507f5265656e7472616e637947756172643a207265656e7472616e742063616c6c006000830152602082019050919050565b611ef28161230e565b82525050565b611f018161230e565b82525050565b6000602082019050611f1c6000830184611a2f565b92915050565b6000606082019050611f376000830186611a20565b611f446020830185611a2f565b611f516040830184611ef8565b949350505050565b6000608082019050611f6e6000830187611a20565b611f7b6020830186611a2f565b611f886040830185611ef8565b611f956060830184611ef8565b95945050505050565b6000604082019050611fb36000830185611a2f565b611fc06020830184611a2f565b9392505050565b600060a082019050611fdc6000830188611a2f565b611fe96020830187611ef8565b611ff66040830186611ef8565b6120036060830185611ef8565b6120106080830184611a9c565b9695505050505050565b600060208201905081810360008301526120348184611a3e565b905092915050565b60006020820190506120516000830184611a9c565b92915050565b6000602082019050818103600083015261207081611aab565b9050919050565b6000602082019050818103600083015261209081611b11565b9050919050565b600060208201905081810360008301526120b081611b77565b9050919050565b600060208201905081810360008301526120d081611bdd565b9050919050565b600060208201905081810360008301526120f081611c1d565b9050919050565b6000602082019050818103600083015261211081611c5d565b9050919050565b6000606082019050818103600083015261213081611c9d565b905061213f6020830185611a2f565b61214c6040830184611ef8565b9392505050565b6000606082019050818103600083015261216c81611cdd565b905061217b6020830185611a2f565b6121886040830184611ef8565b9392505050565b600060208201905081810360008301526121a881611d1d565b9050919050565b600060608201905081810360008301526121c881611d5d565b90506121d76020830185611a2f565b6121e46040830184611ef8565b9392505050565b6000602082019050818103600083015261220481611d9d565b9050919050565b6000602082019050818103600083015261222481611e03565b9050919050565b6000602082019050818103600083015261224481611e69565b9050919050565b6000602082019050818103600083015261226481611ea9565b9050919050565b60006020820190506122806000830184611ef8565b92915050565b6000819050602082019050919050565b600081519050919050565b6000602082019050919050565b600082825260208201905092915050565b600082825260208201905092915050565b60006122db826122ee565b9050919050565b60008115159050919050565b600073ffffffffffffffffffffffffffffffffffffffff82169050919050565b6000819050919050565b60006123238261232a565b9050919050565b60006123358261233c565b9050919050565b6000612347826122ee565b9050919050565b60006123598261230e565b91507fffffffffffffffffffffffffffffffffffffffffffffffffffffffffffffffff82141561238c5761238b612397565b5b600182019050919050565b7f4e487b7100000000000000000000000000000000000000000000000000000000600052601160045260246000fd5b6123cf816122d0565b81146123da57600080fd5b50565b6123e6816122e2565b81146123f157600080fd5b50565b6123fd8161230e565b811461240857600080fd5b5056fea2646970667358221220f69722e2004ce7724e0e0f69b1e4f743b16e7e06e498ef736304a42ce173a27764736f6c63430008000033",
  "linkReferences": {},
  "deployedLinkReferences": {}
}